:100000000C9439000C9443000C9443000C9443006E
:100010000C9443000C9443000C9443000C94430054
:100020000C9443000C9443000C9443000C94430044
:100030000C9443000C9443000C9443000C94430034
:100040000C9443000C9443000C9443000C94430024
:100050000C9443000C9443000C9443000C94430014
:100060000C9443000C9443003F065B4F666D7D0784
:100070007F6F11241FBECFEFD8E0DEBFCDBF0E943F
:1000800045000C945C000C9400008FEF84B980E074
:10009000E82FF0E0E859FF4F949195B9893009F4C1
:1000A00080E08F5F2FEF39E698E12150304090409B
:0C00B000E1F700C00000ECCFF894FFCF97
:00000001FF
