:1000000017C031C030C02FC02EC02DC02CC02BC097
:100010002AC029C028C027C026C025C024C023C0AC
:1000200022C021C020C03F065B4F666D7D077F6FF9
:1000300011241FBECFE5D4E0DEBFCDBF10E0A0E6A7
:10004000B0E0E4E2F1E002C005900D92A236B10703
:10005000D9F720E0A2E6B0E001C01D92A436B207B5
:10006000E1F70FD05DC0CCCFE82FEF7790E0EA301A
:1000700020F4F0E0EA5DFF4F949187FF906898BB11
:1000800008958FEF87BB14BA85B3806385BBC3B374
:10009000C073D0E018EC8D2FE7DF809162008111F2
:1000A00010C083B3282F207133B39C2F9227932342
:1000B00031F0211104C0D111D15010936200C82B2E
:1000C000C07180916300811111C083B3282F207209
:1000D00033B39C2F9227932339F0211105C0D930D7
:1000E00008F4DF5F10936300C82BC0728091620038
:1000F000882321F081508093620081E09091630019
:10010000992351F09150909363008FEC97E0019701
:10011000F1F700C00000BFCF882309F4BCCFF5CFB2
:04012000F894FFCF81
:02012400800059
:00000001FF
