:100000000C9439000C944F000C944F000C944F004A
:100010000C944F000C944F000C944F000C944F0024
:100020000C944F000C944F000C944F000C944F0014
:100030000C944F000C944F000C944F000C944F0004
:100040000C944F000C944F000C944F000C944F00F4
:100050000C944F000C944F000C944F000C944F00E4
:100060000C944F000C944F003F065B4F666D7D076C
:100070007F6F11241FBECFEFD8E0DEBFCDBF14BE0F
:100080000FB6F894A8958091600088618093600015
:10009000109260000FBE0E94C7000C94E4000C9404
:1000A000000015B896B19C7186B18470292F28275D
:1000B00022FD02C081E208958111FCCF30E020E0F2
:1000C00081E246B14470592F542752FF03C04423A4
:1000D00009F43EC021114AC046B14870592F542737
:1000E000252F287053FF0DC020E041110AC088233E
:1000F00039F0E82FF0E0E859FF4F249125B98150FD
:1001000028EC977F942B311134C046B14071592FA0
:100110005427352F307154FF0DC030E041110AC013
:10012000893038F4E82FF0E0E859FF4F349135B9C1
:100130008F5F38EC9F7E942B222391F02150311158
:100140003150EFECF7E03197F1F700C00000B9CF84
:10015000883021F0893009F4ADCF089580E2089508
:1001600020E0332309F4ADCF20E0EACF332369F256
:10017000E5CF2111E3CFF8CF8A3038F4E82FF0E053
:10018000E859FF4F849185B9089580E0FCCF17B8F6
:100190008FEF84B98CE188B90E9451008860809308
:1001A0006000F894C0E08C2F0E94BC00CF5FCA3082
:1001B00008F0C0E02FEF89E698E1215080409040A0
:0C01C000E1F700C00000EFCFF894FFCF83
:00000001FF
