:100000000C9434000C9449000C9449000C94490061
:100010000C9449000C9449000C9449000C9449003C
:100020000C9449000C9449000C9449000C9449002C
:100030000C9449000C9449000C9449000C9449001C
:100040000C9449000C9449000C9449000C9449000C
:100050000C9449000C9449000C9449000C944900FC
:100060000C9449000C94490011241FBECFEFD8E036
:10007000DEBFCDBF11E0A0E0B1E0E6E0F1E002C0FC
:1000800005900D92A430B107D9F70E9470000C942E
:1000900081000C94000030E020E041E050E085B1A8
:1000A0008F60BA01022E01C0660F0A94EAF7862714
:1000B00085B9000093B1892F8077803741F0892F6F
:1000C000807194FF0CC095FF09C082E008952F5FF6
:1000D0003F4F2430310519F78FEF089581E00895DF
:1000E0008FEF8AB98FE084B98FE785B90E944B0002
:1000F0008F3FE1F3E82FF0E0E050FF4F80818BB9B4
:06010000F5CFF894FFCFDB
:0401060001020400EE
:00000001FF
