:100000000C9434000C943E000C943E000C943E0082
:100010000C943E000C943E000C943E000C943E0068
:100020000C943E000C943E000C943E000C943E0058
:100030000C943E000C943E000C943E000C943E0048
:100040000C943E000C943E000C943E000C943E0038
:100050000C943E000C943E000C943E000C943E0028
:100060000C943E000C943E0011241FBECFEFD8E04C
:10007000DEBFCDBF0E9469000C9478000C94000094
:1000800030E020E041E050E085B18F60BA01022EFF
:1000900001C0660F0A94EAF7862785B9000093B17C
:1000A000892F807F803F51F0892F807194FF10C08D
:1000B00095FF0BC096FF0BC083E008952F5F3F4F65
:1000C0002430310509F78FEF089581E0089582E02B
:1000D00008958FE084B98FEF85B98AB9C2E0D1E085
:1000E0000E9440008F3F11F0DBB9FACFCBB9F8CFB7
:0400F000F894FFCFB2
:00000001FF
